{
  "abi": [
    {
      "inputs": [],
      "stateMutability": "nonpayable",
      "type": "constructor"
    },
    {
      "inputs": [
        {
          "internalType": "address",
          "name": "sender",
          "type": "address"
        },
        {
          "internalType": "uint256",
          "name": "tokenId",
          "type": "uint256"
        },
        {
          "internalType": "address",
          "name": "owner",
          "type": "address"
        }
      ],
      "name": "ERC721IncorrectOwner",
      "type": "error"
    },
    {
      "inputs": [
        {
          "internalType": "address",
          "name": "operator",
          "type": "address"
        },
        {
          "internalType": "uint256",
          "name": "tokenId",
          "type": "uint256"
        }
      ],
      "name": "ERC721InsufficientApproval",
      "type": "error"
    },
    {
      "inputs": [
        {
          "internalType": "address",
          "name": "approver",
          "type": "address"
        }
      ],
      "name": "ERC721InvalidApprover",
      "type": "error"
    },
    {
      "inputs": [
        {
          "internalType": "address",
          "name": "operator",
          "type": "address"
        }
      ],
      "name": "ERC721InvalidOperator",
      "type": "error"
    },
    {
      "inputs": [
        {
          "internalType": "address",
          "name": "owner",
          "type": "address"
        }
      ],
      "name": "ERC721InvalidOwner",
      "type": "error"
    },
    {
      "inputs": [
        {
          "internalType": "address",
          "name": "receiver",
          "type": "address"
        }
      ],
      "name": "ERC721InvalidReceiver",
      "type": "error"
    },
    {
      "inputs": [
        {
          "internalType": "address",
          "name": "sender",
          "type": "address"
        }
      ],
      "name": "ERC721InvalidSender",
      "type": "error"
    },
    {
      "inputs": [
        {
          "internalType": "uint256",
          "name": "tokenId",
          "type": "uint256"
        }
      ],
      "name": "ERC721NonexistentToken",
      "type": "error"
    },
    {
      "inputs": [
        {
          "internalType": "address",
          "name": "owner",
          "type": "address"
        }
      ],
      "name": "OwnableInvalidOwner",
      "type": "error"
    },
    {
      "inputs": [
        {
          "internalType": "address",
          "name": "account",
          "type": "address"
        }
      ],
      "name": "OwnableUnauthorizedAccount",
      "type": "error"
    },
    {
      "anonymous": false,
      "inputs": [
        {
          "indexed": true,
          "internalType": "address",
          "name": "owner",
          "type": "address"
        },
        {
          "indexed": true,
          "internalType": "address",
          "name": "approved",
          "type": "address"
        },
        {
          "indexed": true,
          "internalType": "uint256",
          "name": "tokenId",
          "type": "uint256"
        }
      ],
      "name": "Approval",
      "type": "event"
    },
    {
      "anonymous": false,
      "inputs": [
        {
          "indexed": true,
          "internalType": "address",
          "name": "owner",
          "type": "address"
        },
        {
          "indexed": true,
          "internalType": "address",
          "name": "operator",
          "type": "address"
        },
        {
          "indexed": false,
          "internalType": "bool",
          "name": "approved",
          "type": "bool"
        }
      ],
      "name": "ApprovalForAll",
      "type": "event"
    },
    {
      "anonymous": false,
      "inputs": [
        {
          "indexed": true,
          "internalType": "address",
          "name": "previousOwner",
          "type": "address"
        },
        {
          "indexed": true,
          "internalType": "address",
          "name": "newOwner",
          "type": "address"
        }
      ],
      "name": "OwnershipTransferred",
      "type": "event"
    },
    {
      "anonymous": false,
      "inputs": [
        {
          "indexed": true,
          "internalType": "address",
          "name": "from",
          "type": "address"
        },
        {
          "indexed": true,
          "internalType": "address",
          "name": "to",
          "type": "address"
        },
        {
          "indexed": true,
          "internalType": "uint256",
          "name": "tokenId",
          "type": "uint256"
        }
      ],
      "name": "Transfer",
      "type": "event"
    },
    {
      "inputs": [
        {
          "internalType": "address",
          "name": "to",
          "type": "address"
        },
        {
          "internalType": "uint256",
          "name": "tokenId",
          "type": "uint256"
        }
      ],
      "name": "approve",
      "outputs": [],
      "stateMutability": "nonpayable",
      "type": "function"
    },
    {
      "inputs": [
        {
          "internalType": "address",
          "name": "owner",
          "type": "address"
        }
      ],
      "name": "balanceOf",
      "outputs": [
        {
          "internalType": "uint256",
          "name": "",
          "type": "uint256"
        }
      ],
      "stateMutability": "view",
      "type": "function"
    },
    {
      "inputs": [
        {
          "internalType": "uint256",
          "name": "tokenId",
          "type": "uint256"
        }
      ],
      "name": "burn",
      "outputs": [],
      "stateMutability": "nonpayable",
      "type": "function"
    },
    {
      "inputs": [
        {
          "internalType": "uint256",
          "name": "tokenId",
          "type": "uint256"
        }
      ],
      "name": "getApproved",
      "outputs": [
        {
          "internalType": "address",
          "name": "",
          "type": "address"
        }
      ],
      "stateMutability": "view",
      "type": "function"
    },
    {
      "inputs": [
        {
          "internalType": "address",
          "name": "owner",
          "type": "address"
        },
        {
          "internalType": "address",
          "name": "operator",
          "type": "address"
        }
      ],
      "name": "isApprovedForAll",
      "outputs": [
        {
          "internalType": "bool",
          "name": "",
          "type": "bool"
        }
      ],
      "stateMutability": "view",
      "type": "function"
    },
    {
      "inputs": [],
      "name": "name",
      "outputs": [
        {
          "internalType": "string",
          "name": "",
          "type": "string"
        }
      ],
      "stateMutability": "view",
      "type": "function"
    },
    {
      "inputs": [],
      "name": "owner",
      "outputs": [
        {
          "internalType": "address",
          "name": "",
          "type": "address"
        }
      ],
      "stateMutability": "view",
      "type": "function"
    },
    {
      "inputs": [
        {
          "internalType": "uint256",
          "name": "tokenId",
          "type": "uint256"
        }
      ],
      "name": "ownerOf",
      "outputs": [
        {
          "internalType": "address",
          "name": "",
          "type": "address"
        }
      ],
      "stateMutability": "view",
      "type": "function"
    },
    {
      "inputs": [],
      "name": "renounceOwnership",
      "outputs": [],
      "stateMutability": "nonpayable",
      "type": "function"
    },
    {
      "inputs": [
        {
          "internalType": "address",
          "name": "to",
          "type": "address"
        },
        {
          "internalType": "uint256",
          "name": "tokenId",
          "type": "uint256"
        }
      ],
      "name": "safeMint",
      "outputs": [],
      "stateMutability": "nonpayable",
      "type": "function"
    },
    {
      "inputs": [
        {
          "internalType": "address",
          "name": "from",
          "type": "address"
        },
        {
          "internalType": "address",
          "name": "to",
          "type": "address"
        },
        {
          "internalType": "uint256",
          "name": "tokenId",
          "type": "uint256"
        }
      ],
      "name": "safeTransferFrom",
      "outputs": [],
      "stateMutability": "nonpayable",
      "type": "function"
    },
    {
      "inputs": [
        {
          "internalType": "address",
          "name": "from",
          "type": "address"
        },
        {
          "internalType": "address",
          "name": "to",
          "type": "address"
        },
        {
          "internalType": "uint256",
          "name": "tokenId",
          "type": "uint256"
        },
        {
          "internalType": "bytes",
          "name": "data",
          "type": "bytes"
        }
      ],
      "name": "safeTransferFrom",
      "outputs": [],
      "stateMutability": "nonpayable",
      "type": "function"
    },
    {
      "inputs": [
        {
          "internalType": "address",
          "name": "operator",
          "type": "address"
        },
        {
          "internalType": "bool",
          "name": "approved",
          "type": "bool"
        }
      ],
      "name": "setApprovalForAll",
      "outputs": [],
      "stateMutability": "nonpayable",
      "type": "function"
    },
    {
      "inputs": [
        {
          "internalType": "bytes4",
          "name": "interfaceId",
          "type": "bytes4"
        }
      ],
      "name": "supportsInterface",
      "outputs": [
        {
          "internalType": "bool",
          "name": "",
          "type": "bool"
        }
      ],
      "stateMutability": "view",
      "type": "function"
    },
    {
      "inputs": [],
      "name": "symbol",
      "outputs": [
        {
          "internalType": "string",
          "name": "",
          "type": "string"
        }
      ],
      "stateMutability": "view",
      "type": "function"
    },
    {
      "inputs": [
        {
          "internalType": "uint256",
          "name": "tokenId",
          "type": "uint256"
        }
      ],
      "name": "tokenURI",
      "outputs": [
        {
          "internalType": "string",
          "name": "",
          "type": "string"
        }
      ],
      "stateMutability": "view",
      "type": "function"
    },
    {
      "inputs": [
        {
          "internalType": "address",
          "name": "from",
          "type": "address"
        },
        {
          "internalType": "address",
          "name": "to",
          "type": "address"
        },
        {
          "internalType": "uint256",
          "name": "tokenId",
          "type": "uint256"
        }
      ],
      "name": "transferFrom",
      "outputs": [],
      "stateMutability": "nonpayable",
      "type": "function"
    },
    {
      "inputs": [
        {
          "internalType": "address",
          "name": "newOwner",
          "type": "address"
        }
      ],
      "name": "transferOwnership",
      "outputs": [],
      "stateMutability": "nonpayable",
      "type": "function"
    }
  ],
  "bytecode": {
    "object": "0x60806040523480156200001157600080fd5b5033604051806040016040528060078152602001664d61694c61627360c81b81525060405180604001604052806002815260200161135360f21b81525081600090816200005f9190620001a9565b5060016200006e8282620001a9565b5050506001600160a01b038116620000a057604051631e4fbdf760e01b81526000600482015260240160405180910390fd5b620000ab81620000b2565b5062000275565b600680546001600160a01b038381166001600160a01b0319831681179093556040519116919082907f8be0079c531659141344cd1fd0a4f28419497f9722a3daafe3b4186f6b6457e090600090a35050565b634e487b7160e01b600052604160045260246000fd5b600181811c908216806200012f57607f821691505b6020821081036200015057634e487b7160e01b600052602260045260246000fd5b50919050565b601f821115620001a457600081815260208120601f850160051c810160208610156200017f5750805b601f850160051c820191505b81811015620001a0578281556001016200018b565b5050505b505050565b81516001600160401b03811115620001c557620001c562000104565b620001dd81620001d684546200011a565b8462000156565b602080601f831160018114620002155760008415620001fc5750858301515b600019600386901b1c1916600185901b178555620001a0565b600085815260208120601f198616915b82811015620002465788860151825594840194600190910190840162000225565b5085821015620002655787850151600019600388901b60f8161c191681555b5050505050600190811b01905550565b6110f880620002856000396000f3fe608060405234801561001057600080fd5b50600436106101165760003560e01c8063715018a6116100a2578063a22cb46511610071578063a22cb46514610239578063b88d4fde1461024c578063c87b56dd1461025f578063e985e9c514610272578063f2fde38b1461028557600080fd5b8063715018a6146102055780638da5cb5b1461020d57806395d89b411461021e578063a14481941461022657600080fd5b806323b872dd116100e957806323b872dd1461019857806342842e0e146101ab57806342966c68146101be5780636352211e146101d157806370a08231146101e457600080fd5b806301ffc9a71461011b57806306fdde0314610143578063081812fc14610158578063095ea7b314610183575b600080fd5b61012e610129366004610d68565b610298565b60405190151581526020015b60405180910390f35b61014b6102ea565b60405161013a9190610dd5565b61016b610166366004610de8565b61037c565b6040516001600160a01b03909116815260200161013a565b610196610191366004610e1d565b6103a5565b005b6101966101a6366004610e47565b6103b4565b6101966101b9366004610e47565b610444565b6101966101cc366004610de8565b610464565b61016b6101df366004610de8565b610470565b6101f76101f2366004610e83565b61047b565b60405190815260200161013a565b6101966104c3565b6006546001600160a01b031661016b565b61014b6104d7565b610196610234366004610e1d565b6104e6565b610196610247366004610e9e565b6104f8565b61019661025a366004610ef0565b610503565b61014b61026d366004610de8565b61051a565b61012e610280366004610fcc565b61058f565b610196610293366004610e83565b6105bd565b60006001600160e01b031982166380ac58cd60e01b14806102c957506001600160e01b03198216635b5e139f60e01b145b806102e457506301ffc9a760e01b6001600160e01b03198316145b92915050565b6060600080546102f990610fff565b80601f016020809104026020016040519081016040528092919081815260200182805461032590610fff565b80156103725780601f1061034757610100808354040283529160200191610372565b820191906000526020600020905b81548152906001019060200180831161035557829003601f168201915b5050505050905090565b6000610387826105fb565b506000828152600460205260409020546001600160a01b03166102e4565b6103b0828233610634565b5050565b6001600160a01b0382166103e357604051633250574960e11b8152600060048201526024015b60405180910390fd5b60006103f0838333610641565b9050836001600160a01b0316816001600160a01b03161461043e576040516364283d7b60e01b81526001600160a01b03808616600483015260248201849052821660448201526064016103da565b50505050565b61045f83838360405180602001604052806000815250610503565b505050565b6103b060008233610641565b60006102e4826105fb565b60006001600160a01b0382166104a7576040516322718ad960e21b8152600060048201526024016103da565b506001600160a01b031660009081526003602052604090205490565b6104cb61073a565b6104d56000610767565b565b6060600180546102f990610fff565b6104ee61073a565b6103b082826107b9565b6103b03383836107d3565b61050e8484846103b4565b61043e84848484610872565b6060610525826105fb565b50600061053d60408051602081019091526000815290565b9050600081511161055d5760405180602001604052806000815250610588565b806105678461099b565b604051602001610578929190611039565b6040516020818303038152906040525b9392505050565b6001600160a01b03918216600090815260056020908152604080832093909416825291909152205460ff1690565b6105c561073a565b6001600160a01b0381166105ef57604051631e4fbdf760e01b8152600060048201526024016103da565b6105f881610767565b50565b6000818152600260205260408120546001600160a01b0316806102e457604051637e27328960e01b8152600481018490526024016103da565b61045f8383836001610a2e565b6000828152600260205260408120546001600160a01b039081169083161561066e5761066e818486610b34565b6001600160a01b038116156106ac5761068b600085600080610a2e565b6001600160a01b038116600090815260036020526040902080546000190190555b6001600160a01b038516156106db576001600160a01b0385166000908152600360205260409020805460010190555b60008481526002602052604080822080546001600160a01b0319166001600160a01b0389811691821790925591518793918516917fddf252ad1be2c89b69c2b068fc378daa952ba7f163c4a11628f55a4df523b3ef91a4949350505050565b6006546001600160a01b031633146104d55760405163118cdaa760e01b81523360048201526024016103da565b600680546001600160a01b038381166001600160a01b0319831681179093556040519116919082907f8be0079c531659141344cd1fd0a4f28419497f9722a3daafe3b4186f6b6457e090600090a35050565b6103b0828260405180602001604052806000815250610b98565b6001600160a01b03821661080557604051630b61174360e31b81526001600160a01b03831660048201526024016103da565b6001600160a01b03838116600081815260056020908152604080832094871680845294825291829020805460ff191686151590811790915591519182527f17307eab39ab6107e8899845ad3d59bd9653f200f220920489ca2b5937696c31910160405180910390a3505050565b6001600160a01b0383163b1561043e57604051630a85bd0160e11b81526001600160a01b0384169063150b7a02906108b4903390889087908790600401611068565b6020604051808303816000875af19250505080156108ef575060408051601f3d908101601f191682019092526108ec918101906110a5565b60015b610958573d80801561091d576040519150601f19603f3d011682016040523d82523d6000602084013e610922565b606091505b50805160000361095057604051633250574960e11b81526001600160a01b03851660048201526024016103da565b805181602001fd5b6001600160e01b03198116630a85bd0160e11b1461099457604051633250574960e11b81526001600160a01b03851660048201526024016103da565b5050505050565b606060006109a883610baf565b600101905060008167ffffffffffffffff8111156109c8576109c8610eda565b6040519080825280601f01601f1916602001820160405280156109f2576020820181803683370190505b5090508181016020015b600019016f181899199a1a9b1b9c1cb0b131b232b360811b600a86061a8153600a85049450846109fc57509392505050565b8080610a4257506001600160a01b03821615155b15610b04576000610a52846105fb565b90506001600160a01b03831615801590610a7e5750826001600160a01b0316816001600160a01b031614155b8015610a915750610a8f818461058f565b155b15610aba5760405163a9fbf51f60e01b81526001600160a01b03841660048201526024016103da565b8115610b025783856001600160a01b0316826001600160a01b03167f8c5be1e5ebec7d5bd14f71427d1e84f3dd0314c0f7b2291e5b200ac8c7c3b92560405160405180910390a45b505b5050600090815260046020526040902080546001600160a01b0319166001600160a01b0392909216919091179055565b610b3f838383610c87565b61045f576001600160a01b038316610b6d57604051637e27328960e01b8152600481018290526024016103da565b60405163177e802f60e01b81526001600160a01b0383166004820152602481018290526044016103da565b610ba28383610ced565b61045f6000848484610872565b60008072184f03e93ff9f4daa797ed6e38ed64bf6a1f0160401b8310610bee5772184f03e93ff9f4daa797ed6e38ed64bf6a1f0160401b830492506040015b6d04ee2d6d415b85acef81000000008310610c1a576d04ee2d6d415b85acef8100000000830492506020015b662386f26fc100008310610c3857662386f26fc10000830492506010015b6305f5e1008310610c50576305f5e100830492506008015b6127108310610c6457612710830492506004015b60648310610c76576064830492506002015b600a83106102e45760010192915050565b60006001600160a01b03831615801590610ce55750826001600160a01b0316846001600160a01b03161480610cc15750610cc1848461058f565b80610ce557506000828152600460205260409020546001600160a01b038481169116145b949350505050565b6001600160a01b038216610d1757604051633250574960e11b8152600060048201526024016103da565b6000610d2583836000610641565b90506001600160a01b0381161561045f576040516339e3563760e11b8152600060048201526024016103da565b6001600160e01b0319811681146105f857600080fd5b600060208284031215610d7a57600080fd5b813561058881610d52565b60005b83811015610da0578181015183820152602001610d88565b50506000910152565b60008151808452610dc1816020860160208601610d85565b601f01601f19169290920160200192915050565b6020815260006105886020830184610da9565b600060208284031215610dfa57600080fd5b5035919050565b80356001600160a01b0381168114610e1857600080fd5b919050565b60008060408385031215610e3057600080fd5b610e3983610e01565b946020939093013593505050565b600080600060608486031215610e5c57600080fd5b610e6584610e01565b9250610e7360208501610e01565b9150604084013590509250925092565b600060208284031215610e9557600080fd5b61058882610e01565b60008060408385031215610eb157600080fd5b610eba83610e01565b915060208301358015158114610ecf57600080fd5b809150509250929050565b634e487b7160e01b600052604160045260246000fd5b60008060008060808587031215610f0657600080fd5b610f0f85610e01565b9350610f1d60208601610e01565b925060408501359150606085013567ffffffffffffffff80821115610f4157600080fd5b818701915087601f830112610f5557600080fd5b813581811115610f6757610f67610eda565b604051601f8201601f19908116603f01168101908382118183101715610f8f57610f8f610eda565b816040528281528a6020848701011115610fa857600080fd5b82602086016020830137600060208483010152809550505050505092959194509250565b60008060408385031215610fdf57600080fd5b610fe883610e01565b9150610ff660208401610e01565b90509250929050565b600181811c9082168061101357607f821691505b60208210810361103357634e487b7160e01b600052602260045260246000fd5b50919050565b6000835161104b818460208801610d85565b83519083019061105f818360208801610d85565b01949350505050565b6001600160a01b038581168252841660208201526040810183905260806060820181905260009061109b90830184610da9565b9695505050505050565b6000602082840312156110b757600080fd5b815161058881610d5256fea2646970667358221220b9a22ad3a53f62b878b1bcf6defce9a88311bf78af914e90367e8b49126d016f64736f6c63430008140033",
    "linkReferences": {}
  },
  "methodIdentifiers": {
    "approve(address,uint256)": "095ea7b3",
    "balanceOf(address)": "70a08231",
    "burn(uint256)": "42966c68",
    "getApproved(uint256)": "081812fc",
    "isApprovedForAll(address,address)": "e985e9c5",
    "name()": "06fdde03",
    "owner()": "8da5cb5b",
    "ownerOf(uint256)": "6352211e",
    "renounceOwnership()": "715018a6",
    "safeMint(address,uint256)": "a1448194",
    "safeTransferFrom(address,address,uint256)": "42842e0e",
    "safeTransferFrom(address,address,uint256,bytes)": "b88d4fde",
    "setApprovalForAll(address,bool)": "a22cb465",
    "supportsInterface(bytes4)": "01ffc9a7",
    "symbol()": "95d89b41",
    "tokenURI(uint256)": "c87b56dd",
    "transferFrom(address,address,uint256)": "23b872dd",
    "transferOwnership(address)": "f2fde38b"
  },
  "id": 13
}